{
  "_format": "hh-sol-artifact-1",
  "contractName": "NFT",
  "sourceName": "contracts/NFT.sol",
  "abi": [
    {
      "inputs": [],
      "stateMutability": "nonpayable",
      "type": "constructor"
    },
    {
      "inputs": [],
      "name": "AccessControlBadConfirmation",
      "type": "error"
    },
    {
      "inputs": [
        {
          "internalType": "address",
          "name": "account",
          "type": "address"
        },
        {
          "internalType": "bytes32",
          "name": "neededRole",
          "type": "bytes32"
        }
      ],
      "name": "AccessControlUnauthorizedAccount",
      "type": "error"
    },
    {
      "inputs": [
        {
          "internalType": "address",
          "name": "sender",
          "type": "address"
        },
        {
          "internalType": "uint256",
          "name": "tokenId",
          "type": "uint256"
        },
        {
          "internalType": "address",
          "name": "owner",
          "type": "address"
        }
      ],
      "name": "ERC721IncorrectOwner",
      "type": "error"
    },
    {
      "inputs": [
        {
          "internalType": "address",
          "name": "operator",
          "type": "address"
        },
        {
          "internalType": "uint256",
          "name": "tokenId",
          "type": "uint256"
        }
      ],
      "name": "ERC721InsufficientApproval",
      "type": "error"
    },
    {
      "inputs": [
        {
          "internalType": "address",
          "name": "approver",
          "type": "address"
        }
      ],
      "name": "ERC721InvalidApprover",
      "type": "error"
    },
    {
      "inputs": [
        {
          "internalType": "address",
          "name": "operator",
          "type": "address"
        }
      ],
      "name": "ERC721InvalidOperator",
      "type": "error"
    },
    {
      "inputs": [
        {
          "internalType": "address",
          "name": "owner",
          "type": "address"
        }
      ],
      "name": "ERC721InvalidOwner",
      "type": "error"
    },
    {
      "inputs": [
        {
          "internalType": "address",
          "name": "receiver",
          "type": "address"
        }
      ],
      "name": "ERC721InvalidReceiver",
      "type": "error"
    },
    {
      "inputs": [
        {
          "internalType": "address",
          "name": "sender",
          "type": "address"
        }
      ],
      "name": "ERC721InvalidSender",
      "type": "error"
    },
    {
      "inputs": [
        {
          "internalType": "uint256",
          "name": "tokenId",
          "type": "uint256"
        }
      ],
      "name": "ERC721NonexistentToken",
      "type": "error"
    },
    {
      "anonymous": false,
      "inputs": [
        {
          "indexed": true,
          "internalType": "address",
          "name": "owner",
          "type": "address"
        },
        {
          "indexed": true,
          "internalType": "address",
          "name": "approved",
          "type": "address"
        },
        {
          "indexed": true,
          "internalType": "uint256",
          "name": "tokenId",
          "type": "uint256"
        }
      ],
      "name": "Approval",
      "type": "event"
    },
    {
      "anonymous": false,
      "inputs": [
        {
          "indexed": true,
          "internalType": "address",
          "name": "owner",
          "type": "address"
        },
        {
          "indexed": true,
          "internalType": "address",
          "name": "operator",
          "type": "address"
        },
        {
          "indexed": false,
          "internalType": "bool",
          "name": "approved",
          "type": "bool"
        }
      ],
      "name": "ApprovalForAll",
      "type": "event"
    },
    {
      "anonymous": false,
      "inputs": [
        {
          "indexed": true,
          "internalType": "bytes32",
          "name": "role",
          "type": "bytes32"
        },
        {
          "indexed": true,
          "internalType": "bytes32",
          "name": "previousAdminRole",
          "type": "bytes32"
        },
        {
          "indexed": true,
          "internalType": "bytes32",
          "name": "newAdminRole",
          "type": "bytes32"
        }
      ],
      "name": "RoleAdminChanged",
      "type": "event"
    },
    {
      "anonymous": false,
      "inputs": [
        {
          "indexed": true,
          "internalType": "bytes32",
          "name": "role",
          "type": "bytes32"
        },
        {
          "indexed": true,
          "internalType": "address",
          "name": "account",
          "type": "address"
        },
        {
          "indexed": true,
          "internalType": "address",
          "name": "sender",
          "type": "address"
        }
      ],
      "name": "RoleGranted",
      "type": "event"
    },
    {
      "anonymous": false,
      "inputs": [
        {
          "indexed": true,
          "internalType": "bytes32",
          "name": "role",
          "type": "bytes32"
        },
        {
          "indexed": true,
          "internalType": "address",
          "name": "account",
          "type": "address"
        },
        {
          "indexed": true,
          "internalType": "address",
          "name": "sender",
          "type": "address"
        }
      ],
      "name": "RoleRevoked",
      "type": "event"
    },
    {
      "anonymous": false,
      "inputs": [
        {
          "indexed": true,
          "internalType": "address",
          "name": "from",
          "type": "address"
        },
        {
          "indexed": true,
          "internalType": "address",
          "name": "to",
          "type": "address"
        },
        {
          "indexed": true,
          "internalType": "uint256",
          "name": "tokenId",
          "type": "uint256"
        }
      ],
      "name": "Transfer",
      "type": "event"
    },
    {
      "inputs": [],
      "name": "DEFAULT_ADMIN_ROLE",
      "outputs": [
        {
          "internalType": "bytes32",
          "name": "",
          "type": "bytes32"
        }
      ],
      "stateMutability": "view",
      "type": "function"
    },
    {
      "inputs": [],
      "name": "MINTER_ROLE",
      "outputs": [
        {
          "internalType": "bytes32",
          "name": "",
          "type": "bytes32"
        }
      ],
      "stateMutability": "view",
      "type": "function"
    },
    {
      "inputs": [
        {
          "internalType": "address",
          "name": "to",
          "type": "address"
        },
        {
          "internalType": "uint256",
          "name": "tokenId",
          "type": "uint256"
        }
      ],
      "name": "approve",
      "outputs": [],
      "stateMutability": "nonpayable",
      "type": "function"
    },
    {
      "inputs": [
        {
          "internalType": "address",
          "name": "owner",
          "type": "address"
        }
      ],
      "name": "balanceOf",
      "outputs": [
        {
          "internalType": "uint256",
          "name": "",
          "type": "uint256"
        }
      ],
      "stateMutability": "view",
      "type": "function"
    },
    {
      "inputs": [
        {
          "internalType": "uint256",
          "name": "tokenId",
          "type": "uint256"
        }
      ],
      "name": "getApproved",
      "outputs": [
        {
          "internalType": "address",
          "name": "",
          "type": "address"
        }
      ],
      "stateMutability": "view",
      "type": "function"
    },
    {
      "inputs": [
        {
          "internalType": "bytes32",
          "name": "role",
          "type": "bytes32"
        }
      ],
      "name": "getRoleAdmin",
      "outputs": [
        {
          "internalType": "bytes32",
          "name": "",
          "type": "bytes32"
        }
      ],
      "stateMutability": "view",
      "type": "function"
    },
    {
      "inputs": [
        {
          "internalType": "bytes32",
          "name": "role",
          "type": "bytes32"
        },
        {
          "internalType": "address",
          "name": "to",
          "type": "address"
        }
      ],
      "name": "grantRole",
      "outputs": [],
      "stateMutability": "nonpayable",
      "type": "function"
    },
    {
      "inputs": [
        {
          "internalType": "bytes32",
          "name": "role",
          "type": "bytes32"
        },
        {
          "internalType": "address",
          "name": "account",
          "type": "address"
        }
      ],
      "name": "hasRole",
      "outputs": [
        {
          "internalType": "bool",
          "name": "",
          "type": "bool"
        }
      ],
      "stateMutability": "view",
      "type": "function"
    },
    {
      "inputs": [
        {
          "internalType": "address",
          "name": "owner",
          "type": "address"
        },
        {
          "internalType": "address",
          "name": "operator",
          "type": "address"
        }
      ],
      "name": "isApprovedForAll",
      "outputs": [
        {
          "internalType": "bool",
          "name": "",
          "type": "bool"
        }
      ],
      "stateMutability": "view",
      "type": "function"
    },
    {
      "inputs": [],
      "name": "name",
      "outputs": [
        {
          "internalType": "string",
          "name": "",
          "type": "string"
        }
      ],
      "stateMutability": "view",
      "type": "function"
    },
    {
      "inputs": [
        {
          "internalType": "uint256",
          "name": "tokenId",
          "type": "uint256"
        }
      ],
      "name": "ownerOf",
      "outputs": [
        {
          "internalType": "address",
          "name": "",
          "type": "address"
        }
      ],
      "stateMutability": "view",
      "type": "function"
    },
    {
      "inputs": [
        {
          "internalType": "bytes32",
          "name": "role",
          "type": "bytes32"
        },
        {
          "internalType": "address",
          "name": "callerConfirmation",
          "type": "address"
        }
      ],
      "name": "renounceRole",
      "outputs": [],
      "stateMutability": "nonpayable",
      "type": "function"
    },
    {
      "inputs": [
        {
          "internalType": "bytes32",
          "name": "role",
          "type": "bytes32"
        },
        {
          "internalType": "address",
          "name": "account",
          "type": "address"
        }
      ],
      "name": "revokeRole",
      "outputs": [],
      "stateMutability": "nonpayable",
      "type": "function"
    },
    {
      "inputs": [
        {
          "internalType": "address",
          "name": "to",
          "type": "address"
        }
      ],
      "name": "safeMint",
      "outputs": [],
      "stateMutability": "nonpayable",
      "type": "function"
    },
    {
      "inputs": [
        {
          "internalType": "address",
          "name": "from",
          "type": "address"
        },
        {
          "internalType": "address",
          "name": "to",
          "type": "address"
        },
        {
          "internalType": "uint256",
          "name": "tokenId",
          "type": "uint256"
        }
      ],
      "name": "safeTransferFrom",
      "outputs": [],
      "stateMutability": "nonpayable",
      "type": "function"
    },
    {
      "inputs": [
        {
          "internalType": "address",
          "name": "from",
          "type": "address"
        },
        {
          "internalType": "address",
          "name": "to",
          "type": "address"
        },
        {
          "internalType": "uint256",
          "name": "tokenId",
          "type": "uint256"
        },
        {
          "internalType": "bytes",
          "name": "data",
          "type": "bytes"
        }
      ],
      "name": "safeTransferFrom",
      "outputs": [],
      "stateMutability": "nonpayable",
      "type": "function"
    },
    {
      "inputs": [
        {
          "internalType": "address",
          "name": "operator",
          "type": "address"
        },
        {
          "internalType": "bool",
          "name": "approved",
          "type": "bool"
        }
      ],
      "name": "setApprovalForAll",
      "outputs": [],
      "stateMutability": "nonpayable",
      "type": "function"
    },
    {
      "inputs": [
        {
          "internalType": "bytes4",
          "name": "interfaceId",
          "type": "bytes4"
        }
      ],
      "name": "supportsInterface",
      "outputs": [
        {
          "internalType": "bool",
          "name": "",
          "type": "bool"
        }
      ],
      "stateMutability": "view",
      "type": "function"
    },
    {
      "inputs": [],
      "name": "symbol",
      "outputs": [
        {
          "internalType": "string",
          "name": "",
          "type": "string"
        }
      ],
      "stateMutability": "view",
      "type": "function"
    },
    {
      "inputs": [
        {
          "internalType": "uint256",
          "name": "tokenId",
          "type": "uint256"
        }
      ],
      "name": "tokenURI",
      "outputs": [
        {
          "internalType": "string",
          "name": "",
          "type": "string"
        }
      ],
      "stateMutability": "view",
      "type": "function"
    },
    {
      "inputs": [
        {
          "internalType": "address",
          "name": "from",
          "type": "address"
        },
        {
          "internalType": "address",
          "name": "to",
          "type": "address"
        },
        {
          "internalType": "uint256",
          "name": "tokenId",
          "type": "uint256"
        }
      ],
      "name": "transferFrom",
      "outputs": [],
      "stateMutability": "nonpayable",
      "type": "function"
    }
  ],
  "bytecode": "0x608060405234801561001057600080fd5b506040518060400160405280600781526020016626bcaa37b5b2b760c91b815250604051806040016040528060038152602001624d544b60e81b815250816000908161005c91906101fb565b50600161006982826101fb565b50610079915060009050336100aa565b506100a47f9f2df0fed2c77648de5860a4cc508cd0818c85b8b8a1ab4ceeef8d981c8956a6336100aa565b506102ba565b60008281526006602090815260408083206001600160a01b038516845290915281205460ff166101505760008381526006602090815260408083206001600160a01b03861684529091529020805460ff191660011790556101083390565b6001600160a01b0316826001600160a01b0316847f2f8788117e7eff1d82e926ec794901d17c78024a50270940304540a733656f0d60405160405180910390a4506001610154565b5060005b92915050565b634e487b7160e01b600052604160045260246000fd5b600181811c9082168061018457607f821691505b6020821081036101a457634e487b7160e01b600052602260045260246000fd5b50919050565b601f8211156101f6576000816000526020600020601f850160051c810160208610156101d35750805b601f850160051c820191505b818110156101f2578281556001016101df565b5050505b505050565b81516001600160401b038111156102145761021461015a565b610228816102228454610170565b846101aa565b602080601f83116001811461025d57600084156102455750858301515b600019600386901b1c1916600185901b1785556101f2565b600085815260208120601f198616915b8281101561028c5788860151825594840194600190910190840161026d565b50858210156102aa5787850151600019600388901b60f8161c191681555b5050505050600190811b01905550565b611331806102c96000396000f3fe608060405234801561001057600080fd5b50600436106101375760003560e01c80636352211e116100b8578063a22cb4651161007c578063a22cb46514610292578063b88d4fde146102a5578063c87b56dd146102b8578063d5391393146102cb578063d547741f146102f2578063e985e9c51461030557600080fd5b80636352211e1461024957806370a082311461025c57806391d148541461026f57806395d89b4114610282578063a217fddf1461028a57600080fd5b8063248a9ca3116100ff578063248a9ca3146101cc5780632f2ff15d146101fd57806336568abe1461021057806340d097c31461022357806342842e0e1461023657600080fd5b806301ffc9a71461013c57806306fdde0314610164578063081812fc14610179578063095ea7b3146101a457806323b872dd146101b9575b600080fd5b61014f61014a366004610f57565b610318565b60405190151581526020015b60405180910390f35b61016c610329565b60405161015b9190610fc4565b61018c610187366004610fd7565b6103bb565b6040516001600160a01b03909116815260200161015b565b6101b76101b236600461100c565b6103e4565b005b6101b76101c7366004611036565b6103f3565b6101ef6101da366004610fd7565b60009081526006602052604090206001015490565b60405190815260200161015b565b6101b761020b366004611072565b610483565b6101b761021e366004611072565b610498565b6101b761023136600461109e565b6104d0565b6101b7610244366004611036565b61051b565b61018c610257366004610fd7565b610536565b6101ef61026a36600461109e565b610541565b61014f61027d366004611072565b610589565b61016c6105b4565b6101ef600081565b6101b76102a03660046110b9565b6105c3565b6101b76102b336600461110b565b6105ce565b61016c6102c6366004610fd7565b6105e5565b6101ef7f9f2df0fed2c77648de5860a4cc508cd0818c85b8b8a1ab4ceeef8d981c8956a681565b6101b7610300366004611072565b61065a565b61014f6103133660046111e7565b61067f565b6000610323826106ad565b92915050565b60606000805461033890611211565b80601f016020809104026020016040519081016040528092919081815260200182805461036490611211565b80156103b15780601f10610386576101008083540402835291602001916103b1565b820191906000526020600020905b81548152906001019060200180831161039457829003601f168201915b5050505050905090565b60006103c6826106d2565b506000828152600460205260409020546001600160a01b0316610323565b6103ef82823361070b565b5050565b6001600160a01b03821661042257604051633250574960e11b8152600060048201526024015b60405180910390fd5b600061042f838333610718565b9050836001600160a01b0316816001600160a01b03161461047d576040516364283d7b60e01b81526001600160a01b0380861660048301526024820184905282166044820152606401610419565b50505050565b600061048e81610811565b61047d838361081e565b6001600160a01b03811633146104c15760405163334bd91960e11b815260040160405180910390fd5b6104cb82826108b2565b505050565b7f9f2df0fed2c77648de5860a4cc508cd0818c85b8b8a1ab4ceeef8d981c8956a66104fa81610811565b600780546000918261050b8361124b565b9190505590506104cb838261091f565b6104cb838383604051806020016040528060008152506105ce565b6000610323826106d2565b60006001600160a01b03821661056d576040516322718ad960e21b815260006004820152602401610419565b506001600160a01b031660009081526003602052604090205490565b60009182526006602090815260408084206001600160a01b0393909316845291905290205460ff1690565b60606001805461033890611211565b6103ef338383610939565b6105d98484846103f3565b61047d848484846109d8565b60606105f0826106d2565b50600061060860408051602081019091526000815290565b905060008151116106285760405180602001604052806000815250610653565b8061063284610b01565b604051602001610643929190611272565b6040516020818303038152906040525b9392505050565b60008281526006602052604090206001015461067581610811565b61047d83836108b2565b6001600160a01b03918216600090815260056020908152604080832093909416825291909152205460ff1690565b60006001600160e01b03198216637965db0b60e01b1480610323575061032382610b94565b6000818152600260205260408120546001600160a01b03168061032357604051637e27328960e01b815260048101849052602401610419565b6104cb8383836001610be4565b6000828152600260205260408120546001600160a01b039081169083161561074557610745818486610cea565b6001600160a01b0381161561078357610762600085600080610be4565b6001600160a01b038116600090815260036020526040902080546000190190555b6001600160a01b038516156107b2576001600160a01b0385166000908152600360205260409020805460010190555b60008481526002602052604080822080546001600160a01b0319166001600160a01b0389811691821790925591518793918516917fddf252ad1be2c89b69c2b068fc378daa952ba7f163c4a11628f55a4df523b3ef91a4949350505050565b61081b8133610d4e565b50565b600061082a8383610589565b6108aa5760008381526006602090815260408083206001600160a01b03861684529091529020805460ff191660011790556108623390565b6001600160a01b0316826001600160a01b0316847f2f8788117e7eff1d82e926ec794901d17c78024a50270940304540a733656f0d60405160405180910390a4506001610323565b506000610323565b60006108be8383610589565b156108aa5760008381526006602090815260408083206001600160a01b0386168085529252808320805460ff1916905551339286917ff6391f5c32d9c69d2a47ea670b442974b53935d1edc7fd64eb21e047a839171b9190a4506001610323565b6103ef828260405180602001604052806000815250610d87565b6001600160a01b03821661096b57604051630b61174360e31b81526001600160a01b0383166004820152602401610419565b6001600160a01b03838116600081815260056020908152604080832094871680845294825291829020805460ff191686151590811790915591519182527f17307eab39ab6107e8899845ad3d59bd9653f200f220920489ca2b5937696c31910160405180910390a3505050565b6001600160a01b0383163b1561047d57604051630a85bd0160e11b81526001600160a01b0384169063150b7a0290610a1a9033908890879087906004016112a1565b6020604051808303816000875af1925050508015610a55575060408051601f3d908101601f19168201909252610a52918101906112de565b60015b610abe573d808015610a83576040519150601f19603f3d011682016040523d82523d6000602084013e610a88565b606091505b508051600003610ab657604051633250574960e11b81526001600160a01b0385166004820152602401610419565b805181602001fd5b6001600160e01b03198116630a85bd0160e11b14610afa57604051633250574960e11b81526001600160a01b0385166004820152602401610419565b5050505050565b60606000610b0e83610d9e565b600101905060008167ffffffffffffffff811115610b2e57610b2e6110f5565b6040519080825280601f01601f191660200182016040528015610b58576020820181803683370190505b5090508181016020015b600019016f181899199a1a9b1b9c1cb0b131b232b360811b600a86061a8153600a8504945084610b6257509392505050565b60006001600160e01b031982166380ac58cd60e01b1480610bc557506001600160e01b03198216635b5e139f60e01b145b8061032357506301ffc9a760e01b6001600160e01b0319831614610323565b8080610bf857506001600160a01b03821615155b15610cba576000610c08846106d2565b90506001600160a01b03831615801590610c345750826001600160a01b0316816001600160a01b031614155b8015610c475750610c45818461067f565b155b15610c705760405163a9fbf51f60e01b81526001600160a01b0384166004820152602401610419565b8115610cb85783856001600160a01b0316826001600160a01b03167f8c5be1e5ebec7d5bd14f71427d1e84f3dd0314c0f7b2291e5b200ac8c7c3b92560405160405180910390a45b505b5050600090815260046020526040902080546001600160a01b0319166001600160a01b0392909216919091179055565b610cf5838383610e76565b6104cb576001600160a01b038316610d2357604051637e27328960e01b815260048101829052602401610419565b60405163177e802f60e01b81526001600160a01b038316600482015260248101829052604401610419565b610d588282610589565b6103ef5760405163e2517d3f60e01b81526001600160a01b038216600482015260248101839052604401610419565b610d918383610edc565b6104cb60008484846109d8565b60008072184f03e93ff9f4daa797ed6e38ed64bf6a1f0160401b8310610ddd5772184f03e93ff9f4daa797ed6e38ed64bf6a1f0160401b830492506040015b6d04ee2d6d415b85acef81000000008310610e09576d04ee2d6d415b85acef8100000000830492506020015b662386f26fc100008310610e2757662386f26fc10000830492506010015b6305f5e1008310610e3f576305f5e100830492506008015b6127108310610e5357612710830492506004015b60648310610e65576064830492506002015b600a83106103235760010192915050565b60006001600160a01b03831615801590610ed45750826001600160a01b0316846001600160a01b03161480610eb05750610eb0848461067f565b80610ed457506000828152600460205260409020546001600160a01b038481169116145b949350505050565b6001600160a01b038216610f0657604051633250574960e11b815260006004820152602401610419565b6000610f1483836000610718565b90506001600160a01b038116156104cb576040516339e3563760e11b815260006004820152602401610419565b6001600160e01b03198116811461081b57600080fd5b600060208284031215610f6957600080fd5b813561065381610f41565b60005b83811015610f8f578181015183820152602001610f77565b50506000910152565b60008151808452610fb0816020860160208601610f74565b601f01601f19169290920160200192915050565b6020815260006106536020830184610f98565b600060208284031215610fe957600080fd5b5035919050565b80356001600160a01b038116811461100757600080fd5b919050565b6000806040838503121561101f57600080fd5b61102883610ff0565b946020939093013593505050565b60008060006060848603121561104b57600080fd5b61105484610ff0565b925061106260208501610ff0565b9150604084013590509250925092565b6000806040838503121561108557600080fd5b8235915061109560208401610ff0565b90509250929050565b6000602082840312156110b057600080fd5b61065382610ff0565b600080604083850312156110cc57600080fd5b6110d583610ff0565b9150602083013580151581146110ea57600080fd5b809150509250929050565b634e487b7160e01b600052604160045260246000fd5b6000806000806080858703121561112157600080fd5b61112a85610ff0565b935061113860208601610ff0565b925060408501359150606085013567ffffffffffffffff8082111561115c57600080fd5b818701915087601f83011261117057600080fd5b813581811115611182576111826110f5565b604051601f8201601f19908116603f011681019083821181831017156111aa576111aa6110f5565b816040528281528a60208487010111156111c357600080fd5b82602086016020830137600060208483010152809550505050505092959194509250565b600080604083850312156111fa57600080fd5b61120383610ff0565b915061109560208401610ff0565b600181811c9082168061122557607f821691505b60208210810361124557634e487b7160e01b600052602260045260246000fd5b50919050565b60006001820161126b57634e487b7160e01b600052601160045260246000fd5b5060010190565b60008351611284818460208801610f74565b835190830190611298818360208801610f74565b01949350505050565b6001600160a01b03858116825284166020820152604081018390526080606082018190526000906112d490830184610f98565b9695505050505050565b6000602082840312156112f057600080fd5b815161065381610f4156fea2646970667358221220685d3304e49270308f8a73a38bb8ef233fb7ee3879d0f8d81946b99d0b10245e64736f6c63430008190033",
  "linkReferences": {},
  "deployedLinkReferences": {}
}