{
  "_format": "hh-sol-artifact-1",
  "contractName": "NFTMinter",
  "sourceName": "contracts/NFTMinter.sol",
  "abi": [
    {
      "inputs": [
        {
          "internalType": "contract IERC721",
          "name": "_nftContract",
          "type": "address"
        }
      ],
      "stateMutability": "nonpayable",
      "type": "constructor"
    },
    {
      "inputs": [],
      "name": "EnforcedPause",
      "type": "error"
    },
    {
      "inputs": [],
      "name": "ExpectedPause",
      "type": "error"
    },
    {
      "inputs": [
        {
          "internalType": "address",
          "name": "owner",
          "type": "address"
        }
      ],
      "name": "OwnableInvalidOwner",
      "type": "error"
    },
    {
      "inputs": [
        {
          "internalType": "address",
          "name": "account",
          "type": "address"
        }
      ],
      "name": "OwnableUnauthorizedAccount",
      "type": "error"
    },
    {
      "inputs": [],
      "name": "ReentrancyGuardReentrantCall",
      "type": "error"
    },
    {
      "anonymous": false,
      "inputs": [
        {
          "indexed": true,
          "internalType": "address",
          "name": "previousOwner",
          "type": "address"
        },
        {
          "indexed": true,
          "internalType": "address",
          "name": "newOwner",
          "type": "address"
        }
      ],
      "name": "OwnershipTransferred",
      "type": "event"
    },
    {
      "anonymous": false,
      "inputs": [
        {
          "indexed": false,
          "internalType": "address",
          "name": "account",
          "type": "address"
        }
      ],
      "name": "Paused",
      "type": "event"
    },
    {
      "anonymous": false,
      "inputs": [
        {
          "indexed": false,
          "internalType": "address",
          "name": "account",
          "type": "address"
        }
      ],
      "name": "Unpaused",
      "type": "event"
    },
    {
      "inputs": [
        {
          "internalType": "address",
          "name": "",
          "type": "address"
        }
      ],
      "name": "balanceOf",
      "outputs": [
        {
          "internalType": "uint256",
          "name": "",
          "type": "uint256"
        }
      ],
      "stateMutability": "view",
      "type": "function"
    },
    {
      "inputs": [
        {
          "internalType": "uint256",
          "name": "amount",
          "type": "uint256"
        }
      ],
      "name": "mint",
      "outputs": [],
      "stateMutability": "nonpayable",
      "type": "function"
    },
    {
      "inputs": [],
      "name": "nft",
      "outputs": [
        {
          "internalType": "contract IERC721",
          "name": "",
          "type": "address"
        }
      ],
      "stateMutability": "view",
      "type": "function"
    },
    {
      "inputs": [],
      "name": "owner",
      "outputs": [
        {
          "internalType": "address",
          "name": "",
          "type": "address"
        }
      ],
      "stateMutability": "view",
      "type": "function"
    },
    {
      "inputs": [],
      "name": "pause",
      "outputs": [],
      "stateMutability": "nonpayable",
      "type": "function"
    },
    {
      "inputs": [],
      "name": "paused",
      "outputs": [
        {
          "internalType": "bool",
          "name": "",
          "type": "bool"
        }
      ],
      "stateMutability": "view",
      "type": "function"
    },
    {
      "inputs": [],
      "name": "renounceOwnership",
      "outputs": [],
      "stateMutability": "nonpayable",
      "type": "function"
    },
    {
      "inputs": [
        {
          "internalType": "address",
          "name": "newOwner",
          "type": "address"
        }
      ],
      "name": "transferOwnership",
      "outputs": [],
      "stateMutability": "nonpayable",
      "type": "function"
    },
    {
      "inputs": [],
      "name": "unpause",
      "outputs": [],
      "stateMutability": "nonpayable",
      "type": "function"
    },
    {
      "inputs": [
        {
          "internalType": "contract IERC721",
          "name": "_nft",
          "type": "address"
        }
      ],
      "name": "updateNFT",
      "outputs": [],
      "stateMutability": "nonpayable",
      "type": "function"
    },
    {
      "inputs": [
        {
          "internalType": "address[]",
          "name": "_account",
          "type": "address[]"
        },
        {
          "internalType": "uint256[]",
          "name": "_quantity",
          "type": "uint256[]"
        }
      ],
      "name": "whitelist",
      "outputs": [],
      "stateMutability": "nonpayable",
      "type": "function"
    }
  ],
  "bytecode": "0x608060405234801561001057600080fd5b5060405161083b38038061083b83398101604081905261002f916100e5565b338061005557604051631e4fbdf760e01b81526000600482015260240160405180910390fd5b61005e81610095565b506000805460ff60a01b1916905560018055600280546001600160a01b0319166001600160a01b0392909216919091179055610115565b600080546001600160a01b038381166001600160a01b0319831681178455604051919092169283917f8be0079c531659141344cd1fd0a4f28419497f9722a3daafe3b4186f6b6457e09190a35050565b6000602082840312156100f757600080fd5b81516001600160a01b038116811461010e57600080fd5b9392505050565b610717806101246000396000f3fe608060405234801561001057600080fd5b50600436106100a95760003560e01c8063715018a611610071578063715018a6146101465780638456cb591461014e5780638da5cb5b14610156578063a0712d6814610167578063cf2357431461017a578063f2fde38b1461018d57600080fd5b80633f4ba83a146100ae57806347ccca02146100b85780635be68e93146100e85780635c975abb146100fb57806370a0823114610118575b600080fd5b6100b66101a0565b005b6002546100cb906001600160a01b031681565b6040516001600160a01b0390911681526020015b60405180910390f35b6100b66100f63660046105af565b6101b2565b600054600160a01b900460ff1660405190151581526020016100df565b6101386101263660046105af565b60036020526000908152604090205481565b6040519081526020016100df565b6100b66101dc565b6100b66101ee565b6000546001600160a01b03166100cb565b6100b66101753660046105d3565b6101fe565b6100b6610188366004610638565b61030b565b6100b661019b3660046105af565b6103cb565b6101a8610406565b6101b0610433565b565b6101ba610406565b600280546001600160a01b0319166001600160a01b0392909216919091179055565b6101e4610406565b6101b06000610488565b6101f6610406565b6101b06104d8565b61020661051b565b61020e610546565b336000908152600360205260409020548111156102655760405162461bcd60e51b815260206004820152601060248201526f2737ba3434b733903a379036b4b73a1760811b60448201526064015b60405180910390fd5b33600090815260036020526040812080548392906102849084906106a4565b90915550600090505b818110156102fe576002546040516340d097c360e01b81523360048201526001600160a01b03909116906340d097c390602401600060405180830381600087803b1580156102da57600080fd5b505af11580156102ee573d6000803e3d6000fd5b50506001909201915061028d9050565b5061030860018055565b50565b610313610406565b8281146103535760405162461bcd60e51b815260206004820152600e60248201526d24b73b30b634b21030b93930bc9760911b604482015260640161025c565b60005b838110156103c457828282818110610370576103706106cb565b905060200201356003600087878581811061038d5761038d6106cb565b90506020020160208101906103a291906105af565b6001600160a01b03168152602081019190915260400160002055600101610356565b5050505050565b6103d3610406565b6001600160a01b0381166103fd57604051631e4fbdf760e01b81526000600482015260240161025c565b61030881610488565b6000546001600160a01b031633146101b05760405163118cdaa760e01b815233600482015260240161025c565b61043b610570565b6000805460ff60a01b191690557f5db9ee0a495bf2e6ff9c91a7834c1ba4fdd244a5e8aa4e537bd38aeae4b073aa335b6040516001600160a01b03909116815260200160405180910390a1565b600080546001600160a01b038381166001600160a01b0319831681178455604051919092169283917f8be0079c531659141344cd1fd0a4f28419497f9722a3daafe3b4186f6b6457e09190a35050565b6104e061051b565b6000805460ff60a01b1916600160a01b1790557f62e78cea01bee320cd4e420270b5ea74000d11b0c9f74754ebdbfc544b05a25861046b3390565b600054600160a01b900460ff16156101b05760405163d93c066560e01b815260040160405180910390fd5b60026001540361056957604051633ee5aeb560e01b815260040160405180910390fd5b6002600155565b600054600160a01b900460ff166101b057604051638dfc202b60e01b815260040160405180910390fd5b6001600160a01b038116811461030857600080fd5b6000602082840312156105c157600080fd5b81356105cc8161059a565b9392505050565b6000602082840312156105e557600080fd5b5035919050565b60008083601f8401126105fe57600080fd5b50813567ffffffffffffffff81111561061657600080fd5b6020830191508360208260051b850101111561063157600080fd5b9250929050565b6000806000806040858703121561064e57600080fd5b843567ffffffffffffffff8082111561066657600080fd5b610672888389016105ec565b9096509450602087013591508082111561068b57600080fd5b50610698878288016105ec565b95989497509550505050565b818103818111156106c557634e487b7160e01b600052601160045260246000fd5b92915050565b634e487b7160e01b600052603260045260246000fdfea264697066735822122015f3ca055927fef6a35141c5437e9347d86f3b7a670299fd3a241f75bdea991264736f6c63430008190033",
  "linkReferences": {},
  "deployedLinkReferences": {}
}